{
  "transactions": [
    {
      "hash": "0x2b4ff18f1c11d2d38f12bdc42f27f7126fb823534e4513a32ba43615b7be6453",
      "transactionType": "CALL",
      "contractName": null,
      "contractAddress": "0x779877a7b0d9e8603169ddbd7836e478b4624789",
      "function": "transferAndCall(address,uint256,bytes)",
      "arguments": [
        "0x9DdfaCa8183c41ad55329BdeeD9F6A8d53168B1B",
        "5000000000000000000",
        "0x282546707184bc4336d5ea6a18bf71f66b4ce0593e89e48b9017a50435416383"
      ],
      "transaction": {
        "from": "0x918b0db5d32b963977a18bd14f1004be80c2d71f",
        "to": "0x779877a7b0d9e8603169ddbd7836e478b4624789",
        "gas": "0x14cbb",
        "value": "0x0",
        "input": "0x4000aea00000000000000000000000009ddfaca8183c41ad55329bdeed9f6a8d53168b1b0000000000000000000000000000000000000000000000004563918244f4000000000000000000000000000000000000000000000000000000000000000000600000000000000000000000000000000000000000000000000000000000000020282546707184bc4336d5ea6a18bf71f66b4ce0593e89e48b9017a50435416383",
        "nonce": "0x4f",
        "chainId": "0xaa36a7"
      },
      "additionalContracts": [],
      "isFixedGasLimit": false
    }
  ],
  "receipts": [
    {
      "status": "0x1",
      "cumulativeGasUsed": "0x10c08fa",
      "logs": [
        {
          "address": "0x779877a7b0d9e8603169ddbd7836e478b4624789",
          "topics": [
            "0xddf252ad1be2c89b69c2b068fc378daa952ba7f163c4a11628f55a4df523b3ef",
            "0x000000000000000000000000918b0db5d32b963977a18bd14f1004be80c2d71f",
            "0x0000000000000000000000009ddfaca8183c41ad55329bdeed9f6a8d53168b1b"
          ],
          "data": "0x0000000000000000000000000000000000000000000000004563918244f40000",
          "blockHash": "0xf7a429a675f0508b57ca992b0251fdb184b36163de2f1ff9fe9663b1d0e30107",
          "blockNumber": "0x679914",
          "transactionHash": "0x2b4ff18f1c11d2d38f12bdc42f27f7126fb823534e4513a32ba43615b7be6453",
          "transactionIndex": "0x2e",
          "logIndex": "0x85",
          "removed": false
        },
        {
          "address": "0x779877a7b0d9e8603169ddbd7836e478b4624789",
          "topics": [
            "0xe19260aff97b920c7df27010903aeb9c8d2be5d310a2c67824cf3f15396e4c16",
            "0x000000000000000000000000918b0db5d32b963977a18bd14f1004be80c2d71f",
            "0x0000000000000000000000009ddfaca8183c41ad55329bdeed9f6a8d53168b1b"
          ],
          "data": "0x0000000000000000000000000000000000000000000000004563918244f4000000000000000000000000000000000000000000000000000000000000000000400000000000000000000000000000000000000000000000000000000000000020282546707184bc4336d5ea6a18bf71f66b4ce0593e89e48b9017a50435416383",
          "blockHash": "0xf7a429a675f0508b57ca992b0251fdb184b36163de2f1ff9fe9663b1d0e30107",
          "blockNumber": "0x679914",
          "transactionHash": "0x2b4ff18f1c11d2d38f12bdc42f27f7126fb823534e4513a32ba43615b7be6453",
          "transactionIndex": "0x2e",
          "logIndex": "0x86",
          "removed": false
        },
        {
          "address": "0x9ddfaca8183c41ad55329bdeed9f6a8d53168b1b",
          "topics": [
            "0x1ced9348ff549fceab2ac57cd3a9de38edaaab274b725ee82c23e8fc8c4eec7a",
            "0x282546707184bc4336d5ea6a18bf71f66b4ce0593e89e48b9017a50435416383"
          ],
          "data": "0x0000000000000000000000000000000000000000000000000fd825db9191cff9000000000000000000000000000000000000000000000000553bb75dd685cff9",
          "blockHash": "0xf7a429a675f0508b57ca992b0251fdb184b36163de2f1ff9fe9663b1d0e30107",
          "blockNumber": "0x679914",
          "transactionHash": "0x2b4ff18f1c11d2d38f12bdc42f27f7126fb823534e4513a32ba43615b7be6453",
          "transactionIndex": "0x2e",
          "logIndex": "0x87",
          "removed": false
        }
      ],
      "logsBloom": "0x0000000c000000008000000000000000000000000020000000000000020000000000000000000000000000000000000800000000000000000000000000000000000000000000000000000008000000000000000000000000000020000020000008000000000000000000000000000000000000000000000000400010000040000000000000000000000000010000800000000020000000020000000000000000000000000000000000000000010000000000000000000000000004000000000000000002000000000000000000000000000000000000000100000000000000000010000000020000800000000000000000000000000000000000000000000000",
      "type": "0x2",
      "transactionHash": "0x2b4ff18f1c11d2d38f12bdc42f27f7126fb823534e4513a32ba43615b7be6453",
      "transactionIndex": "0x2e",
      "blockHash": "0xf7a429a675f0508b57ca992b0251fdb184b36163de2f1ff9fe9663b1d0e30107",
      "blockNumber": "0x679914",
      "gasUsed": "0xf0e5",
      "effectiveGasPrice": "0x269aa645c7",
      "from": "0x918b0db5d32b963977a18bd14f1004be80c2d71f",
      "to": "0x779877a7b0d9e8603169ddbd7836e478b4624789",
      "contractAddress": null
    }
  ],
  "libraries": [],
  "pending": [],
  "returns": {},
  "timestamp": 1727721125,
  "chain": 11155111,
  "commit": "dc09ace"
}